:100000000C94E6040C942D050C942D050C942D05F0
:100010000C942D050C942D050C942D050C942D0598
:100020000C942D050C942D050C94D42A0C94A62B1D
:100030000C9418210C942D050C942D050C942D0571
:100040000C942D050C942D050C942D050C942D0568
:100050000C942D050C9480210C942D050C942D05E9
:100060000C942D050C942D050C942D050C942D0548
:100070000C942D050C942D050C942D050C942D0538
:100080000C942D050C942D050C942D050C942D0528
:100090000C942D050C942D050C942D050C942D0518
:1000A0000C942D050C942D050C942D054E0753072B
:1000B0005D07510756075B075907E907EB07F60786
:1000C000ED07EF07F107F307F507F807FA07FC0755
:1000D0000708FE0700080208040806080908D516E4
:1000E000D5160F170F1744176417D1180D19A61737
:1000F0000D1956185618C9180D190D190819631835
:100100006318631863186318631863186318631817
:1001100063186318631863186318631863187518F5
:100120008218891890189A1898199819AA19AA1952
:10013000A119AA19AA19AA1998199819A619AA19D8
:10014000AA19A619132C352C232D352C232D7A2CE6
:100150009D2C232DF22C052D6572676F646F782F0F
:100160006572676F646F785F657A5F31613365636D
:100170006536623036663532623732656631642004
:100180004020302E352E3438006572676F646F78EA
:100190002F6572676F646F785F657A5F3161336571
:1001A0006365366230366635326237326566316491
:1001B000204020302E352E3438000000F0A1010000
:1001C0000100010001000100000001001400040012
:1001D0001D00E300010001001A0016001B00E200F0
:1001E0002C000100080007000600E000115001008B
:1001F000150009001900E1000100010017000A00C4
:1002000005000000010001000100000001000000E5
:1002100001000100010000000100000001000100D8
:100220001C000B00110000000100010018000D006F
:100230001000E100010001000C000E00360001007A
:100240001250010012000F003700010001000100F0
:1002500013000354380004540100010001000100A0
:100260000100010000000100010001000100010087
:10027000000001001E020100010001000100010058
:1002800034020100350201000100010020020100DA
:100290003500010001000100210201002E000100D3
:1002A00001000100220201003102000001000100F2
:1002B0000100000001000000005C010001000000DE
:1002C00001000000005C010024024A002E02000030
:1002D0000100010034004E00250201000100010070
:1002E00026024B002F0201000100010027024D00F1
:1002F00030020100105001002D0201000100010038
:1003000001000100010001000100010000000100E6
:100310000100010001000100000001001E00370083
:1003200001000100010001001F003800230201004C
:1003300001000100200025021F0201000100010050
:1003400021002D002D0001000100010022002E02DD
:100350003100000001000100010000000100000068
:10036000005C01000100000001000000005C0100D1
:100370002300500033000000010001002400510060
:100380003302010001000100250052002F0001008E
:100390000100010026004F00300001001050010054
:1003A000270001000100010001000100010001001F
:1003B0000100010000000100010001000100010036
:1003C0000000010001004A000100010001000100DD
:1003D0000100010001000100010001004D004C007E
:1003E000010001000100010001004F0001000100B7
:1003F00001000100010001005000000001000100A7
:100400000100000001000000005C0100010000008C
:1004100001000000005C010001002A005100000002
:100420000100010001000D0328000100010001008E
:100430002B0029000100010001000100010033032D
:1004400001000100105001005200010001000100F4
:100450000100010001000100010001000000010095
:100460000100010001000100000001003A00440009
:1004700001000100010001003B00450001000100F6
:10048000010001003C0068000100010001000100C2
:100490003D00690001000100010001003E006A000A
:1004A0000100000001000100010000000100000047
:1004B000005C01000100000001000000005C010080
:1004C0003F006B00010000000100010040006C00D3
:1004D000010001000100010041006D000100010068
:1004E0000100010042006E000100010010500100F7
:1004F00043006F0001000100010001000100010044
:1005000001000100000000000000000000002A2B94
:1005100028000000000000000000000000000000B3
:100520000029000000002C1E34202122243426271C
:10053000252E362D3738271E1F202122232425263D
:100540003333362E37381F0405060708090A0B0C0B
:100550000D0E0F101112131415161718191A1B1C53
:100560001D2F3130232D350405060708090A0B0C11
:100570000D0E0F101112131415161718191A1B1C33
:100580001D2F3130354C000000000000000000003D
:10059000000000000000000000000000000000005B
:1005A0000000000000000001010101010100010143
:1005B0000101000000000000000000000000000039
:1005C000010001000101010101010101010101011D
:1005D000010101010101010101010101010101010B
:1005E0000100000001010000000000000000000008
:1005F00000000000000000000000000000000000FB
:100600000001010101006801F000B40078005A0007
:10061000643214643214783C1E1E140A0500000073
:10062000000101010202030405050607090A0B0C7B
:100630000E0F1112141517191B1D1F212325282A0F
:100640002C2F313436393B3E414346494C4F5255AD
:10065000585A5D6164676A6D707376797C7F8386B2
:10066000898C8F9295989B9EA2A5A7AAADB0B3B690
:10067000B9BCBEC1C4C6C9CBCED0D3D5D7DADCDEB7
:10068000E0E2E4E6E8EAEBEDEEF0F1F3F4F5F6F89B
:10069000F9FAFAFBFCFDFDFEFEFEFFFFFFFFFFFF88
:1006A000FFFEFEFEFDFDFCFBFAFAF9F8F6F5F4F3A9
:1006B000F1F0EEEDEBEAE8E6E4E2E0DEDCDAD7D5F5
:1006C000D3D0CECBC9C6C4C1BEBCB9B6B3B0ADAA37
:1006D000A7A5A29E9B9895928F8C898683807C7912
:1006E0007673706D6A6764615D5A5855524F4C4914
:1006F0004643413E3B393634312F2C2A28252321CD
:100700001F1D1B1917151412110F0E0C0B0A0907C8
:1007100006050504030202010101000000000000BB
:1007200000000101010101010101010202020202B6
:100730000202020203030303030303030404040489
:10074000040405050505050606060606070707074E
:10075000080808080909090A0A0A0A0B0B0B0C0CFD
:100760000C0D0D0D0E0E0F0F0F1010111111121296
:1007700013131414151516161717181819191A1A11
:100780001B1C1C1D1D1E1F1F20202122222324256F
:100790002526272728292A2B2B2C2D2E2F2F3031A9
:1007A0003233343536363738393A3B3C3D3E3F40BC
:1007B00041424344464748494A4B4C4D4F505152A1
:1007C00053555657585A5B5C5E5F60626364666758
:1007D000696A6C6D6E707173747678797B7C7E80DB
:1007E00081838486888A8B8D8F91929496989A9B28
:1007F0009D9FA1A3A5A7A9ABADAFB1B3B5B7B9BB39
:10080000BDBFC1C4C6C8CACCCFD1D3D6D8DADCDF0D
:10081000E1E4E6E8EBEDF0F2F5F7FAFCFF1603454C
:1008200000720067006F0044006F007800200045F0
:10083000005A00000016034500720067006F004474
:10084000006F007800200045005A000000040309F2
:100850000409026D00040100A0FA0904000001036C
:100860000101000921110100012240000705810357
:1008700008000A0904010001030102000921110115
:100880000001224D000705820308000A0904020046
:1008900001030000000921110100012236000705B3
:1008A000830308000A090403000103000000092172
:1008B0001101000122390007058403200001120103
:1008C000100100000008EDFE071301000102000105
:1008D00005010906A101050719E029E71500250111
:1008E000950875018102050819012905950575010D
:1008F00091029501750391010507190029F715006B
:10090000250195F875018102C005010980A10185C5
:10091000021601002603001A81002A830075109533
:10092000018100C0050C0901A10185031601002603
:100930009C021A01002A9C02751095018100C005D5
:10094000010902A1010901A10005091901290515E3
:100950000025019505750181029501750381010549
:1009600001093009311581257F9502750881060935
:10097000381581257F950175088106050C0A380216
:100980001581257F950175088106C0C005010906FE
:10099000A101050719E029E7150025019508750152
:1009A0008102950175088101050819012905950540
:1009B000750191029501750391010507190029FF41
:1009C000150026FF00950675088100C011241FBE82
:1009D000CFEFDAE0DEBFCDBF04B603FE27C08091C3
:1009E000B7039091B803A091B903B091BA038730CF
:1009F000904BA740B04BD1F41092B7031092B803BC
:100A00001092B9031092BA0314BE84B7877F84BFD3
:100A10000FB6F894A895809160008861809360007B
:100A2000109260000FBEE0E0FFE3099511E0A0E046
:100A3000B1E0E0E0FEE502C005900D92AA3DB107ED
:100A4000D9F723E0AAEDB1E001C01D92A73BB207A0
:100A5000E1F70E9401280C94FE2E0C9400001092E5
:100A6000B9008AE08093B800089594EA9093BC009E
:100A70009091BC0097FFFCCF9091B900987F98307F
:100A800021F0903111F081E008958093BB0084E85B
:100A90008093BC008091BC0087FFFCCF8091B9009F
:100AA000887F883111F0803471F780E0089584E9FF
:100AB0008093BC008091BC0084FDFCCF089580939E
:100AC000BB0084E88093BC008091BC0087FFFCCF12
:100AD0009091B900987F81E0983209F480E0089500
:100AE00084E88093BC008091BC0087FFFCCF80919C
:100AF000BB00089580B38C7080BB81B3836F81BBD2
:100B0000089580910001811115C080E40E9435058F
:100B10008093000181110CC082E10E945F058093E7
:100B20000001811105C08FEF0E945F0580930001D5
:100B30000E94570584B1807F84B985B1807F85B9D3
:100B40008AB1837F8AB98BB1837F8BB93E984698EF
:100B5000089508950C9432070E94330C809300018D
:100B60000E9481050E947A052BED31E0EFE2F2E070
:100B70004EE04E0F119280E090E0D901A80FB91F0E
:100B80001C92019686309105C1F72A5F3F4F4E13A4
:100B9000F1CF0C9439090E94330C809300010E941C
:100BA00081050E947A05EFE2F2E08EE08E0F11924D
:100BB0008E13FDCF089526E0829FC0011124FC0111
:100BC000E552FE4F20E030E080E041E050E09081CF
:100BD000992319F09150908307C0BA01022E01C0E9
:100BE000660F0A94EAF7862B2F5F3F4F3196263027
:100BF000310569F7089596E0699FB001112420E05E
:100C000030E090E04FE0FC01022E02C0F595E79540
:100C10000A94E2F7E0FF06C0F901E60FF71FE5527C
:100C2000FE4F40832F5F3F4F2630310561F7089517
:100C3000AF92BF92CF92DF92EF92FF920F931F93EA
:100C4000CF93DF9380910001882379F08091DA01BE
:100C50008F5F8093DA01811108C00E94330C80936A
:100C60000001811102C00E94C50B8FE2E82E82E0D4
:100C7000F82E00E010E0CC24C394D12CAA24A39435
:100C8000C02F0730110500F58091000181113CC093
:100C900080E40E94350580930001811112C082E139
:100CA0000E945F058093000181110BC0C601002ED8
:100CB00001C0880F0A94EAF780950E945F0580932F
:100CC00000010E94570520C00A30A1F028F4083026
:100CD00059F0093061F005C00C3089F070F00D302A
:100CE00089F0209A289810C0219A29980DC0229A3C
:100CF0002A980AC0239A2B9807C0529A01C0539A87
:100D00005B9802C03E9A469880EA8A95F1F78C2F4C
:100D10000E94DB05D82F0730110518F580910001DE
:100D2000811144C080E40E9435058093000188232E
:100D300011F0B12C12C083E10E945F058093000185
:100D40008111F7CF81E40E94350580930001811164
:100D5000F0CF0E947005B82EB0940E9457059B2DCD
:100D600026C08FB181708A25799902C092E001C0B6
:100D700090E0892B7C9902C094E001C090E0982B10
:100D80007D9902C038E001C030E0932B7E9902C00B
:100D900020E101C020E0922B2FB12095221F2227B5
:100DA000221F2295220F207E922B01C090E0F70196
:100DB00080819D23D095D823D92B6C2F8D270E941D
:100DC000FB05F701D1937F010E9481050F5F1F4F43
:100DD0000E30110509F054CF0E943B0981E0DF91EC
:100DE000CF911F910F91FF90EF90DF90CF90BF9028
:100DF000AF900895E82FF0E0E15DFD4F8081089508
:100E00000895611108C0FC018281882321F089E8DE
:100E100091E00E940E0980E090E00895FB018E3C75
:100E20002CE5920769F08F3C2CE5920789F08D3C08
:100E30009C45B1F482818823A1F00E9494200EC0C9
:100E40008281882371F088E591E00E940E0906C036
:100E50008281882331F081E00E94941080E008951F
:100E600081E008956091FF02709100038091010379
:100E7000909102030E94442056985E9825982D98E0
:100E800026982E9827982F9890E0FC013197E7300C
:100E9000F105A8F4EA5AFF4F0C94B02E259A2D9A2A
:100EA0000895259A2D9A269A2E9A0895259A2D9A74
:100EB00004C0259A2D9A269A2E9A279A2F9A089539
:100EC00081E008950C940E070E9486192FEF84E3A9
:100ED0009CE0215080409040E1F700C000000C945D
:100EE000A621FF920F931F93CF93DF938C01FC01F8
:100EF000C081D18180918E02811113C082818823AB
:100F000049F0CE010E94A71EF82E682FCE010E9444
:100F10004A1E04C0CE010E947A1EF82EBE018F2DFB
:100F200004C0CE010E94A71EBE010E945009EC0120
:100F3000B8010E946207882309F469C1B801CE0193
:100F40000E94760B882309F462C1B801CE010E9489
:100F5000820C882309F45BC1C13CFCE5DF0741F446
:100F6000F8018281882309F452C10E941C104FC1EC
:100F7000C23C8CE5D80708F0A6C0C5319CE5D9076E
:100F800008F07EC0C230ECE5DE0708F452C0F8017C
:100F90008281882309F459C00E94B520811102C0C2
:100FA0000E9494200E94C82090E09093A90380930F
:100FB000A803FE01E350FC45E231F10530F4E35AA9
:100FC000FF4F8091A8030C94B02E8091A8038160FC
:100FD00027C0826025C0846023C0806121C08062F8
:100FE0001FC080641DC080681BC08460886018C0FA
:100FF0008E7F16C08D7F14C08B7F12C08F7E10C075
:101000008F7D0EC08F7B0CC08F770AC08B7F877F50
:1010100007C087FB222720F991E0922790FB87F9F0
:101020008093A8038091A8030E94CC200E94861977
:10103000EEC0C115FCE5DF0781F0C130DC45A9F049
:1010400081E08093410280934202C801DF91CF91F9
:101050001F910F91FF900C946007F8018281882303
:1010600009F4D5C00E946407D2C0F80182818823A8
:1010700009F4CDC080912C03816080932C03C7C0FC
:10108000CF3B9CE5D90741F4F8018281882309F41C
:10109000BEC00E940F11BBC0C03CECE5DE0740F0B3
:1010A000F8018281882309F4B2C00E940410AFC005
:1010B000CE3BDC4529F6F8018281882309F4A7C0DC
:1010C0000E941911A4C0C53C8CE5D80741F4F80171
:1010D0008281882309F49BC00E947A1098C0C63C84
:1010E0009CE5D907D8F4F8018281C33CFCE5DF0711
:1010F00031F4882309F48BC00E944D1088C0C43C91
:10110000DC4530F4882309F482C00E943B107FC084
:10111000882309F47CC00E945F1079C0C73CECE5CD
:10112000DE0781F5F8018281882361F01092420286
:101130000E944A219093400280933F0280E20E94E5
:101140008A1665C00E94CB1F81FF05C081E0809395
:101150004102809342028091420281110FC080912E
:101160003F02909140020E945621883C910530F444
:1011700087E20E94681587E20E943B1680E20E9487
:10118000911645C0C73CFCE5DF0760F5F801828198
:10119000882351F0109241020E944A2190933E020E
:1011A00080933D0282E0CBCF0E94CB1F85FF05C01C
:1011B00081E080934102809342028091410281113B
:1011C0000FC080913D0290913E020E945621883CC2
:1011D000910530F486E20E94681586E20E943B1673
:1011E00082E0CDCFCA3C8CE5D80731F4F80182818A
:1011F000882369F080E009C0CB3CDC4509F020CFB2
:10120000F8018281882319F082E00E94972880E00B
:10121000DF91CF911F910F91FF9008950F931F932E
:10122000CF938C01F80124912223F9F030E0F901E9
:10123000EA5FFA4FC491F901EA57FA4F2491222349
:1012400059F081EE0E9468158C2F0E9468158C2F32
:101250000E943B1681EE04C08C2F0E9468158C2FD3
:101260000E943B160F5F1F4FDDCFCF911F910F9153
:1012700008950C941D0C0C94AA05282F882339F08E
:1012800090E02A3010F44D9608950697089587E26D
:1012900090E0089508950C944A090C944B09089520
:1012A00096E0799FF001112494E5899FE00DF11DEE
:1012B0001124E60FF11DEE0FFF1FE254FE4F859142
:1012C00094910895880F991FFC01E654FE4F859173
:1012D000949108950E9450090E94F80A811520E413
:1012E0009207B0F5811540E3940708F0DBC0803E1B
:1012F0009105D8F4803C910508F069C0883A9105C1
:1013000078F4853A910508F065C08130910509F4BB
:101310006EC108F425C18430910508F068C120C170
:101320008D3B910508F461C01BC18F3F910509F009
:1013300048F4803F910508F0AFC0883E910508F45D
:1013400056C10EC1811560E2960708F0A7C0089546
:10135000811574E59707D8F4811523E5920708F005
:10136000DDC0811541E5940740F4811560E59607DD
:1013700008F0A2C09F70906A0895811572E59707E2
:1013800008F0B6C0982F8827816F906A089581155C
:1013900026E5920750F4811545E5940708F0D4C07E
:1013A000982F8827846F906A0895811568E59607BD
:1013B00008F4D6C0811579E5970708F4CAC09C01E6
:1013C00030562115304208F0CBC09F71C7C0805CF9
:1013D000910965C0853A910509F4C5C0863A910521
:1013E00009F0C4C082E890E40895883A910509F4B0
:1013F000C0C0893A910509F4BFC08A3A910509F441
:10140000BEC08B3A910509F4BDC08C3A910509F430
:10141000BCC08B3B910509F4BBC08C3B910509F422
:10142000BAC08D3A910509F4B9C0803B910509F421
:10143000B8C08E3A910509F4B7C08F3A910509F406
:10144000B6C0813B910509F4B5C0823B910509F412
:10145000B4C0833B910509F4B3C0843B910509F402
:10146000B2C0853B910509F4B1C0863B910509F4F2
:10147000B0C0873B910509F4AFC0883B910509F4E2
:10148000AEC0893B910509F4ADC08A3B910509F4D2
:10149000ACC080E094E40895906508959F700E9428
:1014A000620908959C01332793FF03C0C901986C1A
:1014B0000895C901906C0895482F437021E030E0F1
:1014C00002C0220F331F4A95E2F73C68AC0164E08A
:1014D000569547956A95E1F74370342B8F70869542
:1014E000869560E2869FC0011124822B932B08957C
:1014F000482F4695469570E2479FA00111248370BE
:10150000992721E030E0B90102C0660F771F8A9564
:10151000E2F7CB01842B952B9C680895482F4695C4
:10152000469570E2479FA00111248370992721E01E
:1015300030E0B90102C0660F771F8A95E2F7CB0150
:10154000842B952B9A6808958F719927982F882757
:1015500005C0982F8827806F906A0895906208953B
:1015600080E090E0089581E890E4089583E890E4B5
:10157000089582EE94E4089589EE94E408958AEE45
:1015800094E4089585EB94E4089586EB94E408953B
:1015900083EB94E4089584EB94E4089587EB94E45A
:1015A00008958CEC94E408958DEC94E4089583E818
:1015B00095E408958AE895E4089582E995E408950C
:1015C00084E995E4089581E296E4089583E296E43F
:1015D000089584E296E4089585E296E4089586E20B
:1015E00096E4089587E296E408958AE296E40895E1
:1015F0008238910549F1B0F48133910509F458C05E
:1016000048F48932910509F44EC08A32910509F4F3
:1016100054C008958533910509F440C0893391057C
:1016200099F00895833E910529F138F4803E9105A3
:1016300091F0823E9105A1F00895863E9105F9F062
:10164000873E910531F108952091A80320FD3AC00D
:1016500021FD38C008958091A80380FD35C032C0B7
:101660008091A80382FF32C08091A80384FD30C01E
:1016700083EE39C08091A80382FD28C0F5CF809108
:10168000A80383FF27C08091A80384FD21C087EEB3
:101690002AC08091A80383FD1DC0F5CF8091A803C7
:1016A00085FD1AC01BC08091A80385FD17C014C01A
:1016B0008091A80386FD14C015C08091A80386FD03
:1016C00011C00EC080EE0FC089E30DC082EE0BC0CA
:1016D00080E009C086EE07C089E205C085E303C04B
:1016E0008AE201C081E390E0089508950F931F936B
:1016F000CF93FB012281211102C0C1E041C08C01C6
:10170000C0915002C11125C085319C45B1F70E949E
:10171000750B81E0809350020E944A2190934F0202
:1017200080934E021092430210924502109244029E
:1017300010924702109246021092490210924802FB
:1017400010924B0210924A0210924D0210924C02DB
:1017500017C080914E0290914F020E945621883C02
:10176000910558F690914302E92FF0E0EE0FFF1F2C
:10177000EC5BFD4F118300839F5F90934302C0E0B9
:101780008C2FCF911F910F91089556985E982598B0
:101790002D9826982E9827982F988FEF90E0909369
:1017A00089008093880090938B0080938A009093A7
:1017B0008D0080938C00259A2D9A2FEF80E792E080
:1017C000215080409040E1F700C00000269A2E9AF8
:1017D0002FEF80E792E0215080409040E1F700C079
:1017E0000000279A2F9A2FEF80E792E02150804047
:1017F0009040E1F700C0000025982D982FEF80E77A
:1018000092E0215080409040E1F700C0000026980F
:101810002E982FEF80E792E0215080409040E1F732
:1018200000C0000027982F9856985E9825982D980C
:1018300026982E9827982F98089589EA80938000FB
:1018400089E08093810024982C983F988AB18F7CFE
:101850008AB96E98479A8BB180638BB9769A0E9449
:10186000C50B0C94A90580E2809300018091510280
:1018700081110EC00E942F0581E0809351022FEF4D
:1018800083ED90E3215080409040E1F700C00000DC
:1018900080E40E9435058093000181112EC00E94D2
:1018A0005F0580930001811128C00E945F0580932D
:1018B0000001811122C08FE30E945F058093000127
:1018C00081111BC00E94570580E40E94350580935A
:1018D0000001811112C08CE00E945F05809300011D
:1018E00081110BC00E945F0580930001811105C02A
:1018F0008FE30E945F05809300010E94570580914D
:1019000000010895CF93DF93813020E89207D0F053
:10191000FB0122812223B1F0EC018091520281115E
:1019200009C08CE090E00E94B62E0E94A60C81E0D7
:10193000809352020E94AD0CCE019F770E946B0DE6
:101940000E94230D81E0DF91CF910895809353028F
:10195000682F8CE090E00C94CA2EE0910201F09187
:101960000301808180935D0381FF03C081EE0E94AB
:101970003B1680915D0385FF03C085EE0E943B16F8
:1019800080915D0380FF03C080EE0E943B16809132
:101990005D0384FF03C084EE0E943B1680915D03CB
:1019A00082FF03C082EE0E943B1680915D0386FF9A
:1019B00003C086EE0E943B1680915D0383FF03C047
:1019C00083EE0E943B1680915D0387FF03C087EE84
:1019D0000E943B16809153028130A1F078F0823052
:1019E00011F1843049F586EE0E94681586EE0E945A
:1019F0003B1688E10E94681588E11CC082EE0E94B7
:101A000068151AC080EE0E94681581EE0E94681564
:101A100088E10E94681588E10E943B1681EE0E94D1
:101A20003B1680EE07C082EE0E94681587E50E9493
:101A3000681587E50E943B168FE39CE90197F1F753
:101A400000C00000089580915302813029F010F009
:101A5000823041F482EE04C08CE20E9468158CE270
:101A60000E943B1680915D0381FF03C081EE0E94BE
:101A7000681580915D0385FF03C085EE0E9468159F
:101A800080915D0380FF03C080EE0E946815809105
:101A90005D0384FF03C084EE0E94681580915D039E
:101AA00082FF03C082EE0E94681580915D0386FF6D
:101AB00003C086EE0E94681580915D0383FF03C01A
:101AC00083EE0E94681580915D0387FF03C087EE57
:101AD0000C9468150895EF92FF921F93CF93DF93B4
:101AE0007C01CCE0D0E097010C2E02C03695279502
:101AF0000A94E2F7122F1F70812F0E943D090E9465
:101B00006815812F0E943D090E943B162497CC3F07
:101B10008FEFD80741F7DF91CF911F91FF90EF90A2
:101B20000895882319F05198599A02C0519A5998EA
:101B30005098589A95E09A95F1F70000509A589865
:101B400095E09A95F1F70000882311F0519A599881
:101B500085E08A95F1F7000008958BB18C7F8BB9F1
:101B60005098589A5198599A85E08A95F1F7000053
:101B700008958AB18C7F8AB985E08A95F1F70000D3
:101B8000519A599885E08A95F1F70000509A589833
:101B900085E08A95F1F7000008955098589A85E0FD
:101BA0008A95F1F700005198599A85E08A95F1F7E6
:101BB00000000895CF93DF93D82FC8E08D2F807851
:101BC0000E94910DDD0FC150C9F780E00E94910D78
:101BD00085E08A95F1F7000085E08A95F1F700002D
:101BE00080E0DF91CF9108952BB1342F30952323DE
:101BF0003BB1432B3FB7F894FC01680F791FE61700
:101C0000F70789F0819198E04BB9000000C087FF89
:101C10002BB9880F000000C000C000C02BB900C065
:101C20009A9591F7ECCF3FBF0895AF92BF92CF92B4
:101C3000DF92EF92FF920F931F93CF93DF938C016C
:101C4000EB01CFB6D090BC00F8948091BC008B7FA4
:101C50008093BC000E94AD0D0E94B90D84E80E94E3
:101C6000DA0DCC0FDD1FCC0FDD1F78015801AC0E53
:101C7000BD1EEA14FB0431F0F70181917F010E943F
:101C8000DA0DF7CF0E94CD0DCFBED092BC00579A8F
:101C900040E8BE01C801DF91CF911F910F91FF90E5
:101CA000EF90DF90CF90BF90AF900C94F40DEF9237
:101CB000FF920F931F93CF93DF93E901662309F4FB
:101CC0004BC0242F30E0EFEFF0E0E61BF109B90143
:101CD000E69F9001E79F300DF69F300D1124232FD2
:101CE0008B01031B11095CE3E52EF12CB7010E9467
:101CF000882EFB01BC01069FC001079F900D169F17
:101D0000900D1124B7010E94882EE230F105B1F048
:101D100040F4309779F0319711F5832F242F461B2B
:101D200021C0E430F105A1F068F03597C1F4842FAB
:101D3000861B18C0832F262F230F14C0862F830FD6
:101D4000E42F03C0E42FE61B842F432F2E2F0AC05D
:101D5000842F462F430F06C0842F242F03C080E01A
:101D600020E040E0E42FF0E0E35EF84F4491E22F02
:101D7000F0E0E35EF84F9491E82FF0E0E35EF84F77
:101D8000E49149839883EA83DF91CF911F910F916A
:101D9000FF90EF90089588E090E00C94BE2EAB0188
:101DA000BC0188E090E00C94DC2EEEE5F3E083E0EB
:101DB000808310925F038FEF8283838360915E0341
:101DC00070915F0380916003909161030C94CF0E3A
:101DD00080915E0380FF06C06FE070E086E693E0CE
:101DE0000C94150E80E090E0FC01EA59FC4F118242
:101DF0001082128204968C339105B1F7EDCF20E06A
:101E000030E0F901EA59FC4F8183608342832C5F03
:101E10003F4F2C333105A9F70C94E80EEF92FF9257
:101E20000F931F93CF93DF9300D000D0CDB7DEB7D1
:101E300000915E0310915F03209160033091610374
:101E4000009362031093630320936403309365034C
:101E500020915E0320FF21C0042FF62EE92E182FBB
:101E60009E012F5F3F4F0E94570E8091620310FB2F
:101E700087F9809362031695809163038078182B0D
:101E8000E0FA17F910936303F0926403009365037B
:101E90004B8169818A810E94FF0E0F900F900F90F5
:101EA0000F90DF91CF911F910F91FF90EF900895C8
:101EB0008F929F92AF92BF92CF92DF92EF92FF925A
:101EC0000F931F93CF93DF93EC01062F142F809174
:101ED0005E0380FF8CC0982F9E77923021F4CE0154
:101EE0000E940E0F5AC0E82FE695EF739EE39E0FF7
:101EF0009F73943018F4109161034FC09AE39E0FC2
:101F00009F73993070F4881F8827881F90915F0312
:101F1000292F220FC22FC82B97FB992790F9D92F71
:101F20003CC087E28E0F8F738A30B8F5F0E0799766
:101F3000E0FD02C021E001C02FEFEE7FEA5FF94F24
:101F4000859194916FE070E00E94882E26036001D5
:101F5000279FD00C11244E0188E9881A8EEF980A29
:101F600086E6E82E83E0F82E98E6A92EBB24B394EB
:101F7000C401B5010E94882E9701412F602F0E9455
:101F8000570E8C0C9D1C94E0E90EF11C82EAE816B9
:101F900083E0F80669F70E94E80E80915E039C2FAB
:101FA000C0FB87F980935E03969580915F038078EC
:101FB000892BD0FB87F980935F0300936003109314
:101FC000610360915E0370915F0380916003909163
:101FD0006103DF91CF911F910F91FF90EF90DF9000
:101FE000CF90BF90AF909F908F900C94CF0EDF91C9
:101FF000CF911F910F91FF90EF90DF90CF90BF9006
:10200000AF909F908F900895EEE5F3E02081221F1E
:102010002227221F30915F03432F440F842F822BEE
:1020200037FB992790F90C9668E671E00E949C2E88
:10203000438162810C94580F20915E03221F222756
:10204000221F30915F03432F440F842F822B37FBD5
:10205000992790F98C3091051CF4845A9E4F01C049
:102060000C9768E671E00E949C2E4091610360919C
:1020700060030C94580FEEE5F3E08081881F8827F9
:10208000881F90915F03292F220F97FB992790F9C2
:1020900043816FEF822B0C94580FEEE5F3E08081C3
:1020A000881F8827881F90915F03292F220F97FB95
:1020B000992790F9438160E0822B0C94580F40914E
:1020C0006103842F90E0843F910514F4445F01C0C4
:1020D0004FEF80915E03881F8827881F90915F03D0
:1020E000292F220F97FB992790F960916003822B8B
:1020F0000C94580F40916103842F90E00C9714F0DA
:102100004C5001C040E080915E03881F8827881FE3
:1021100090915F03292F220F97FB992790F96091E7
:102120006003822B0C94580F90915E0390FF42C085
:102130009178811102C0926007C0833210F09464DC
:1021400003C08F73880F982B90935E0360915E039A
:1021500070915F0380916003909161030E94CF0EA4
:1021600080915E03982F9E77923019F41092690245
:1021700010C0982F96959F732EE3290F2F73273148
:1021800020F491E09093690204C0995D9F739A30A6
:1021900068F3881F8827881F90915F03292F220FDB
:1021A00097FB992790F94091610360916003822B1E
:1021B0000C94580F089580912C03816080932C0318
:1021C00081E080936A020E94B520811104C00E94C0
:1021D00094200E94D50E0E94CB0E60935E037093F4
:1021E0005F0380936003909361036E7761F40E94B4
:1021F000D50E0E94CB0E60935E0370935F038093B5
:1022000060039093610381E08093690280915E0393
:1022100080FF04C086958F730C949410089580916C
:102220005E0386958F738F5F833208F081E00C9494
:10223000941080915E03982F909590FB80F9809385
:102240005E0360915E0370915F03809160039091E3
:1022500061030E94CF0E80915E0380FF04C08695CB
:102260008F730C949410109269022FEF80E792E024
:10227000215080409040E1F700C000000C94E80E2F
:10228000CF93C82F80916702909168020E945621D7
:10229000EC2FF0E0E75EF94FE491F0E08E179F0736
:1022A00018F10E944A219093680280936702E0919E
:1022B0006602F0E0E35EF94F449180915E03881F6F
:1022C0008827881F90915F03292F220F97FB99275A
:1022D00090F960916003822B0E940E0F809166023C
:1022E00090E0019680936602CF910895CF93C82F16
:1022F00080916402909165020E945621EC2FF0E0DB
:10230000EA5EF94FE491F0E08E179F07E8F00E9433
:102310004A21909365028093640240916103609129
:10232000600380916202909163020E940E0F80917F
:10233000620290916302019668E671E00E94882E25
:102340009093630280936202CF910895CF92DF92BF
:10235000FF920F931F93CF93DF93F82E809160022B
:10236000909161020E945621EF2DE695F0E0EA5E21
:10237000F94FE491F0E08E179F07E8F10E944A219F
:10238000909361028093600206E613E0C0E0D0E023
:1023900088E6C82EDD24D39480915E0290915F027E
:1023A0008C0F9D1FB6010E94882E980140916103F9
:1023B000609160030E94570E68960C5F1F4FC836ED
:1023C00081E0D80749F70E94E80E20915E02309123
:1023D0005F02F0FE0AC0C9010196BE010E94882E6C
:1023E00090935F0280935E0206C0215031093093C2
:1023F0005F0220935E02DF91CF911F910F91FF90BA
:10240000DF90CF9008958F929F92AF92BF92CF921C
:10241000DF92EF92FF920F931F93CF93DF93C82F1A
:1024200080FF03C0DD24DA9402C0DD24D3948091C0
:102430005C0290915D020E945621C695EC2FF0E05F
:10244000ED5EF94FE491F0E08E179F0708F467C046
:102450000E944A2190935D0280935C0296E6E92EE9
:1024600093E0F92E08E613E0C0E0D0E027E0822EEA
:10247000912CF80131971082F7011082F801108237
:1024800087E0A82EB12CC12C80915B028C0D87FDBA
:10249000815F082E000C990BC817D907E9F4209129
:1024A00061032A9DC0012B9D900D1124B4010E944F
:1024B0009C2E462F80915E03881F8827881F90914D
:1024C0005F03592F550F97FB992790F9970160915A
:1024D0006003852B0E94570ECD0CF1E0AF1AB108B6
:1024E00099F6219684E0E80EF11C0C5F1F4FCF3067
:1024F000D10509F0BECF0E94E80E80915B0291E009
:10250000D91206C0811102C08EE007C0815005C0FB
:1025100090E00196BE010E949C2E80935B02DF91A9
:10252000CF911F910F91FF90EF90DF90CF90BF90D0
:10253000AF909F908F9008959F92AF92BF92CF924D
:10254000DF92EF92FF920F931F93CF93DF93CDB75C
:10255000DEB7EC970FB6F894DEBF0FBECDBF182FD5
:102560008091590290915A020E945621E12FF0E089
:10257000E05FF94FE491F0E08E179F0708F495C0F3
:102580000E944A2190935A0280935902CE010196EB
:102590007C015E0193E0A90EB11CC12CD12C8701F6
:1025A000F50131971082F7011082F5011082912C0C
:1025B0009091010180915802999E800D112487FD10
:1025C00004C08F301CF08EE001C080E0082E000CAB
:1025D000990BC816D906A1F480915E03881F88273D
:1025E000881F90915F03592F550F97FB992790F9FA
:1025F00097014091610360916003852B0E94570E03
:102600009394F7E09F12D4CF8FEFC81AD80A94E0C2
:10261000E90EF11CE4E0AE0EB11CFFE0CF16D104D0
:1026200009F0BECF28E633E099E0E92EF12C4FE027
:10263000C42ED12CC701B6010E949C2ED90111973E
:10264000FC01EE0FFF1FEE0FFF1FE00FF11F818156
:102650008C93119780818C938281F9018083FFEFA5
:10266000EF1AFF0A2C5F3F4F88E1E816F10411F7DB
:102670000E94E80E9091010180915802913049F436
:102680008A3F2CF489EF809358028FEF08C0815065
:102690000AC086313CF085E18093580281E0809346
:1026A000010103C08F5F80935802EC960FB6F89437
:1026B000DEBF0FBECDBFDF91CF911F910F91FF9075
:1026C000EF90DF90CF90BF90AF909F900895EF92E2
:1026D000FF920F931F93CF93DF93809156029091B7
:1026E00057020E945621883E9340D0F10E944A2111
:1026F0009093570280935602C0915402D091550294
:102700002196C170DD27D0935502C093540286E60E
:10271000E82E83E0F82E10E008E7812F8695FE0171
:10272000E80FF11DCF018170992797014091610356
:1027300060916003FC010E9FC0010F9F900D11245A
:102740000E94570E1F5FF4E0EF0EF11C1F3029F7B7
:10275000DF91CF911F910F91FF90EF900C94E80EB5
:10276000DF91CF911F910F91FF90EF90089580918D
:102770006902882391F190915E03892F86958F736A
:102780002EE3280F2F73243018F482500C9440113C
:102790002AE3280F2F73233018F486500C947611F7
:1027A00027E3280F2F73263018F489500C94A611B4
:1027B00021E3280F2F73263018F48F500C94031246
:1027C0002BE2280F2F73233018F485510C949C12A0
:1027D0009E77903311F40C946713089590937002D0
:1027E00080936F020895E0916F02F091700230972C
:1027F00021F00190F081E02D099480E00895E091AE
:102800006F02F0917002309721F00280F381E02D89
:1028100009940895E0916F02F0917002309721F0D1
:102820000480F581E02D0994089520916D02309186
:102830006E028217930771F090936E0280936D027F
:10284000E0916F02F0917002309721F00680F781DD
:10285000E02D0994089520916B0230916C0282174B
:10286000930771F090936C0280936B02E0916F027A
:10287000F0917002309721F00084F185E02D0994E9
:10288000089508950C9441140E9441210E94AC05C2
:102890000E94C8210C94DB10CF92DF92EF92FF923E
:1028A0000F931F93CF93DF93CDB7DEB72B970FB660
:1028B000F894DEBF0FBECDBF0E94180682E7C82E77
:1028C00082E0D82E00E010E0E02E802F0E94FA0671
:1028D000F60141916F01F42EF826B1F40F5F1F4FFE
:1028E0000E30110589F78FEF89838A831B820E943E
:1028F0004A218160782F9D838C8349815A816B8125
:102900008D810E942B1540C090912C0391FF04C033
:102910008B870E9400078B8520E030E04F2D50E030
:10292000922FBA01022E02C0759567950A94E2F7BC
:1029300060FF24C02E83EF8221E030E0690102C0F5
:10294000CC0CDD1C9A95E2F790E08C219D21892B1F
:1029500009F420E028870E944A218160782F9A8715
:1029600089874E815F8168858A850E942B15F801D1
:10297000EE58FD4F8081C826C08206C02F5F3F4FB2
:102980002630310569F6AACF0E945B2310917102AF
:102990000E94F3131817A1F00E94F31380937102A1
:1029A0002B960FB6F894DEBF0FBECDBFDF91CF914F
:1029B0001F910F91FF90EF90DF90CF900C944D09F5
:1029C0002B960FB6F894DEBF0FBECDBFDF91CF912F
:1029D0001F910F91FF90EF90DF90CF900895DC0151
:1029E00011962C9111978C91682F70E041E050E086
:1029F00001C0440F8A95EAF712968C91129730E045
:102A0000882329F080918F028823E9F006C0F9011C
:102A1000E058FD4F90819423B1F086E0829FF00151
:102A2000839FF00D1124E60FF71FEE0FFF1FEC5EE2
:102A3000FE4F808191818D939C93F901E058FD4F69
:102A40008081482B06C0F901E058FD4F40958081F8
:102A5000482340830895CF93DF93CDB7DEB72B97FC
:102A60000FB6F894DEBF0FBECDBF942F4F83252F36
:102A7000588769877A878B874A855B85452B21F044
:102A80002F3F09F59F3FF9F4DE01119686E0FD0125
:102A900011928A95E9F785E0FE01379601900D9233
:102AA0008A95E1F749815A816B817C818D819E8174
:102AB0000E941E1C2B960FB6F894DEBF0FBECDBF32
:102AC000DF91CF910895CE0107960E94EF14DCCFDD
:102AD000CF93882309F4CDC0C82F823859F40E94BF
:102AE000F31381FDC6C089E30E94451F0E94152093
:102AF00089E30CC0833879F40E94F31380FDB9C0D8
:102B000083E50E94451F0E94152083E50E94871FD0
:102B1000CF910C941520843859F40E94F31382FD50
:102B2000A8C087E40E94451F0E94152087E4EECFCD
:102B30008CEF8C0F813A48F48C2F0E949B258111D9
:102B400098C08C2F0E94451FE3CF80E28C0F883005
:102B500048F4C77081E001C0880FCA95EAF70E9467
:102B6000CE1FD6CF8BE58C0F833078F4C53A29F091
:102B7000C63A31F083E890E005C081E890E002C0F9
:102B800082E890E0CF910C94151488E58C0F853184
:102B900008F06FC0C83A61F1C93A69F1CA3A71F1F7
:102BA000CB3A79F1CC3A81F1CB3B89F1CC3B91F135
:102BB000CD3A99F1C03BA1F1CE3AA9F1CF3AB1F1AA
:102BC000C13BB9F1C23BC1F1C33BC9F1C43BD1F137
:102BD000C53BD9F1C63BE1F1C73BE9F1C83BF1F197
:102BE000C93BF9F1CA3B09F43FC080E090E03EC028
:102BF00082EE90E03BC089EE90E038C08AEE90E033
:102C000035C085EB90E032C086EB90E02FC083EBBF
:102C100090E02CC084EB90E029C087EB90E026C0C8
:102C20008CEC90E023C08DEC90E020C083E891E034
:102C30001DC08AE891E01AC082E991E017C084E9DA
:102C400091E014C081E292E011C083E292E00EC0F4
:102C500084E292E00BC085E292E008C086E292E056
:102C600005C087E292E002C08AE292E0CF910C9424
:102C70002B14CF910895882309F44BC0823859F45E
:102C80000E94F31381FF45C089E30E94451F0E9403
:102C9000152089E30CC0833871F40E94F31380FF80
:102CA00038C083E50E94451F0E94152083E50E94DD
:102CB000871F0C941520843859F40E94F31382FF67
:102CC00028C087E40E94451F0E94152087E4EFCFAB
:102CD0009CEF980F913A58F390E2980F983050F487
:102CE000877091E001C0990F8A95EAF7892F0E94B9
:102CF000D41FDFCF9BE5980F933020F480E090E065
:102D00000C941514885A853120F480E090E00C94DE
:102D10002B140895882321F00E94CE1F0C941520B7
:102D20000895882321F00E94D41F0C941520089543
:102D30008F929F92AF92BF92CF92DF92EF92FF92CB
:102D40000F931F93CF93DF931F92CDB7DEB77C0114
:102D5000C72EFC01058102950F701281112321F00D
:102D600069830E94EB1F698169830E943E1F69810C
:102D7000882381F0112371F080E2860F883050F0B3
:102D800082E00E94271F0E943E1F91E0D82ED92684
:102D9000698101C0D12CAC2CA2948FE0A822B12C67
:102DA000F501E159FF4F0C94B02E8C2D807F0C2D36
:102DB0000F70882311F00295007F1123C1F00023CA
:102DC00009F4D2C180E2860F883010F0611105C08D
:102DD000802F69830E94CE1F04C0802F69830E94C8
:102DE000DE1F698169830E9415206981BDC1862F1C
:102DF00069830E943B166981002309F40EC280E2B8
:102E0000860F883010F0611104C0802F0E94D41FFB
:102E100003C0802F0E94E41F0E941520FEC19C2D3C
:102E2000907F8C2D8F70903211F08295807F662379
:102E300019F06130B1F01EC0112349F0002309F4EC
:102E40004BC1013009F048C10E94FE1FE6C10023BA
:102E500019F0013009F4E1C189830E9401208981C0
:102E600041C1112321F0023008F0D7C135C1011151
:102E7000D4C138C1112321F0002309F42DC174C13C
:102E8000002309F42FC181C18C2D8695869583700E
:102E900090E0009719F0019761F0BFC1112321F074
:102EA000862F9C2D937002C080E090E00E94151444
:102EB000C4C1112321F0862F9C2D937002C080E0A5
:102EC00090E00E942B14B9C11123F9F0653F51F035
:102ED000663F71F0643FA9F48091A2039091A3032F
:102EE00081600BC08091A2039091A303826005C012
:102EF0008091A2039091A30384609093A303809395
:102F0000A203862F0E9463221EC0653F51F0663FD8
:102F100071F0643FA9F48091A2039091A3038E7F86
:102F20000BC08091A2039091A3038D7F05C0809177
:102F3000A2039091A3038B7F9093A3038093A2039A
:102F4000862F0E94CB220E94502377C18C2D837044
:102F500009F052C011116DC1862F82958695877038
:102F6000880F880F962F9F70892E912CA12CB12C41
:102F7000082E04C0880C991CAA1CBB1C0A94D2F70A
:102F800064FF14C00FE010E020E030E0B901A801B8
:102F900004C0440F551F661F771F8A95D2F7CB01D7
:102FA000BA01609570958095909503C060E070E0DF
:102FB000CB012C2D26952695237030E0223031054B
:102FC00069F02330310589F0682979298A299B29FC
:102FD0002130310571F00E94611D2BC168297929CA
:102FE0008A299B290E94731D24C10E94611DC5016D
:102FF000B4010E944F1D1DC1112319F08C2D817049
:1030000001C08695882309F414C1862F8295869580
:103010008770880F880F962F9F70892E912CA12C76
:10302000B12C082E04C0880C991CAA1CBB1C0A9445
:10303000D2F764FF14C00FE010E020E030E0B901E7
:10304000A80104C0440F551F661F771F8A95D2F749
:10305000CB01BA01609570958095909503C060E0B2
:1030600070E0CB012C2D269526952370422F50E041
:103070004230510569F04330510589F068297929BA
:103080008A299B294130510571F00E94251ED1C02B
:10309000682979298A299B290E94371ECAC00E9463
:1030A000251EC501B4010E94131EC3C0862F90E0E7
:1030B000FC01E05EF109E531F10508F051C0E1588D
:1030C000FF4F0C94B02E062F0F708C2D8F71112393
:1030D00031F00E94AC1D802F0E948A169EC00E9473
:1030E000CD1D802F0E94911698C0112339F0011137
:1030F00094C08C2D8F710E94F21D8FC0023008F099
:103100008CC0F7CF112339F08C2D8F710E94AC1D2C
:1031100084C01123C9F38C2D8F710E94CD1D7DC0F9
:10312000112329F08C2D8F710E94971D76C00E946B
:10313000921D73C0112351F01C2D1F71812F0E940D
:10314000AC1D63E0812F0E941E1F67C081E00E94BA
:10315000271F023008F461C082E00E94271F5DC073
:10316000112331F0002381F2862F0E94681555C08B
:10317000002389F2693349F45FEF77EE83E0515021
:1031800070408040E1F700C00000862F0E943B168F
:1031900044C04C2D4F70C7010E9401070E94C21C01
:1031A0004CC0623F99F128F4603F49F0613FE1F083
:1031B00020C0643FA1F050F0653F59F01AC01123C0
:1031C00039F190918F0281E0892706C081E01827AC
:1031D0001DC011111DC081E080938F0219C0111113
:1031E00017C010928F0214C0002381F0111110C07B
:1031F000E8CF002359F0862F6983112319F00E942C
:10320000681502C00E943B16698102C010938F02AC
:103210004C2D4F70C7010E944F0998E0A916B104C8
:1032200041F05CF0FAE0AF1AB10822E0A216B10456
:1032300020F40E94F3130E944D09DD20F1F00E945A
:103240001A1F80FD1AC0F70112820E94141F0E94EB
:10325000AC1DC7010E944B190E94141F0F90DF91F3
:10326000CF911F910F91FF90EF90DF90CF90BF9083
:10327000AF909F908F900C94CD1D0F90DF91CF91C8
:103280001F910F91FF90EF90DF90CF90BF90AF9084
:103290009F908F9008950F931F93CF93DF93EC012E
:1032A000888199812B813C81232BB9F09F3F11F4B8
:1032B0008F3F99F0CE010E947107882371F06881D9
:1032C00079818A810E94F11E8C010E94491E0E9410
:1032D0004C1DB801CE010E949816DF91CF911F912D
:1032E0000F9108950E94EB1F0E94FB1F0E94BD1FBB
:1032F0000E9415200E9400240E94502380E090E04C
:103300000E94151480E090E00C942B140E94DB1FA7
:103310000C9472190E94E61EE92FE295EF70F0E01E
:103320003297EE30F105B0F4EC56FF4F0C94B02E0E
:10333000803F91F018F4803E68F40EC0843F51F451
:103340000BC0803E48F0813F29F406C093FB8827DC
:1033500080F9089580E0089581E00895CF93DF9388
:1033600000D000D01F92CDB7DEB70F900F900F9016
:103370000F900F90DF91CF910895CF93DF9300D0FE
:1033800000D000D0CDB7DEB726960FB6F894DEBFDA
:103390000FBECDBFDF91CF9108951F93CF93DF93E1
:1033A000C091900216E080919102C81799F0D0E088
:1033B0001C9FF0011D9FF00D1124EE56FD4F408122
:1033C000518162817381848195810E94BD1921960A
:1033D000C770E9CFDF91CF911F9108954091C2024C
:1033E0005091C3026091C4027091C5028091C602DF
:1033F0009091C7020C94BD198091C70282958F707D
:1034000009F054C08091C402882309F44FC0809110
:103410009002A09191026091C2027091C30240910A
:10342000C5025091C602B6E08A1709F43FC090E089
:1034300041155105C1F17F3F11F46F3FA1F1B89FD4
:10344000F001B99FF00D1124EE56FD4F218172134A
:103450002AC02081621327C02281211124C0238128
:1034600034812417350710F421503109241B350B02
:10347000283C3105C0F42091C7022F7020612093B1
:10348000C70226E0289FF001299FF00D1124E9567C
:10349000FD4F80818F708061808382EC92E00E947A
:1034A0004B190C94CD1901968770BECF0895CF9219
:1034B000DF92EF92FF920F931F93CF93DF93CDB7DD
:1034C000DEB762970FB6F894DEBF0FBECDBF8C019A
:1034D00085E0F801DE011D9601900D928A95E1F7D5
:1034E000D8014C9111965C91119712966C9112979C
:1034F0001396CD90DC9014973091C2027091C30264
:103500008091C5029091C602009709F46BC17F3F7C
:1035100019F43F3F09F466C1E090C402EE2009F4BB
:10352000C0C02091C702C816D90628F0F601E81BD2
:10353000F90BCF0104C0809590958C0D9D1DFF2443
:10354000F394883C910578F0F12C207F09F0C6C0F7
:103550007C2DD98AC88A89890E94AE1982EC92E0B2
:103560000E944B19B1C0822F807F09F046C07513AD
:1035700014C0341312C0611110C02F702061209349
:10358000C7020E94EE1982EC92E00E944B198091D2
:10359000C702D80115968C932EC0CD2819F15F3F34
:1035A00011F44F3FF9F0F62E61111CC0809190028A
:1035B0002091910236E0821709F45AC090E0389FBA
:1035C000F001399FF00D1124EE56FD4F7181571314
:1035D00006C07081471303C07281711103C0019648
:1035E0008770E9CFF62E662309F418C18091C702CF
:1035F00081608093C702F12C11C1751308C0341388
:1036000006C0611104C08091C702D801C3C04D87B4
:103610005E878D859E856A8B0E948A196A898823B8
:10362000E1F16623D1F12091C702822F82958F703C
:1036300090E0029774F08091C2029091C302988743
:103640008F831986DB86CA862C87CE0107960E9457
:103650004B1986E0F801A2ECB2E001900D928A9538
:10366000E1F70E94FC190E94EE19FF24F394D6C0E2
:103670004D875E878D859E850E94E61E292F2295A7
:103680002F7030E0223031050CF0BCC09F7009F083
:10369000B6C0805E883008F4C1C0C8010E944B19D2
:1036A000E4CFC816D90608F453C0F601E81BF90B9D
:1036B000CF01883C910508F450C0F12C7C2DD98AAB
:1036C000C88A89890E94AE19E2ECF2E086E0DF0147
:1036D0001D928A95E9F70E94EE19A0C0751314C0D7
:1036E000341312C0611110C08091C702F8018583A4
:1036F000C8010E944B1986E0E2ECF2E0DF011D9266
:103700008A95E9F7FE2C8AC04D875E878D859E8558
:103710006A8B0E948A196A89882309F4BECF6623BE
:1037200009F4BBCF2091C702822F82958F7090E061
:1037300002970CF48ECF8091C2029091C3029A83BB
:1037400089831B82DD82CC822E83CE0101967FCFBE
:10375000809590958C0D9D1DACCFF62E662309F4B7
:103760009CCF75132EC034132CC02091C70220FDAE
:103770001FC0822F82958F70D9F0D80115962C9397
:1037800015978F3049F08F5F982F9295907F822FF9
:103790008F70892B15968C93C8010E944B1986E077
:1037A000F801A2ECB2E001900D928A95E1F793CF77
:1037B00086E0F801A2ECB2E001900D928A95E1F763
:1037C0002DC04D875E878D859E850E948A19811147
:1037D00040CF8091C70281608093C702C8010E94D8
:1037E0004B191CC0662309F458CF4D875E878D8521
:1037F0009E850E948A19882309F44FCF2ACF811110
:1038000048CF0CC0243031050CF047CF9F7009F42D
:1038100040CFF8019581907F09F03BCF8F2D6296C4
:103820000FB6F894DEBF0FBECDBFDF91CF911F91D1
:103830000F91FF90EF90DF90CF9008951F93CF935B
:10384000DF93CDB7DEB72C970FB6F894DEBF0FBE6F
:10385000CDBF4F83588769877A878B879C87CE0136
:1038600007960E94571A882369F08F8198852A85C8
:103870003B85232BF1F19F3F09F063C08F3F09F097
:1038800060C037C086E0FE013796DE0111960190D8
:103890000D928A95E1F76F817885EA85FB853097EF
:1038A00041F17F3F11F46F3F21F12091910230E00F
:1038B000C9010196877099274091900250E08417C2
:1038C000950709F447C069837A83FD83EC8396E00A
:1038D000929FD001939FB00D1124AE56BD4FFE01B3
:1038E000319601900D929A95E1F7809391020E9492
:1038F000CD1916E080919002909191028917C1F143
:10390000189FC00111248E569D4F0E94571A88237C
:1039100079F1E09190021E9FF0011124EE56FD4FC7
:103920004081518162817381848195810E94BD199A
:103930008091900290E00196877099278093900281
:10394000D9CF4F81588569857A858B859C850E9462
:10395000BD19CFCF0E948619109291021092900249
:10396000E2ECF2E086E0DF011D928A95E9F7C1CF33
:103970002C960FB6F894DEBF0FBECDBFDF91CF916E
:103980001F910895EF92FF920F931F93CF93DF93B0
:103990008C01892B09F46CC0F12CEE24E394E8012E
:1039A0002196F8018491843740F4843008F051C0A6
:1039B000813081F0823019F15BC0853709F444C051
:1039C000A8F19CE7980F903708F052C08F770E94BB
:1039D0003B1641C00E5F1F4FFE01C49180E28C0F69
:1039E000883048F4C7708E2D01C0880FCA95EAF759
:1039F0000E94EE1F14C08C2F0E9468152DC00E5F10
:103A00001F4FFE01C49180E28C0F883058F4C770BC
:103A10008E2D01C0880FCA95EAF70E94F41F0E94FC
:103A200015201AC08C2F0E943B1616C00E5F1F4F28
:103A3000FE01C491CC2381F08FE99FE00197F1F75B
:103A400000C00000C150F6CF0E5F1F4FFE01F49082
:103A500003C00E9468158E018F2D882309F49FCF23
:103A6000EFE9FFE03197F1F700C000008150F5CF9A
:103A7000DF91CF911F910F91FF90EF9008950895DE
:103A80000E943F1D6093030370930403809305031A
:103A9000909306030C94721908950C94401D0F9393
:103AA0001F930091030310910403209105033091AB
:103AB0000603602B712B822B932B1F910F910C947B
:103AC000401D0F931F930091030310910403209155
:103AD00005033091060360237123822393231F91F2
:103AE0000F910C94401D0F931F93009103031091AD
:103AF0000403209105033091060360277127822774
:103B000093271F910F910C94401D08950E94851DCD
:103B10006093FF027093000380930103909302036C
:103B20000C94721960E070E0CB010C94861D0F9329
:103B30001F9341E050E060E070E08A019B0104C007
:103B4000000F111F221F331F8A95D2F7C901B80138
:103B50001F910F910C94861D0F931F9341E050E02D
:103B600060E070E004C0440F551F661F771F8A9500
:103B7000D2F78091FF0290910003A0910103B091D0
:103B800002038A019B01082B192B2A2B3B2BC9010D
:103B9000B8011F910F910C94861D0F931F9341E064
:103BA00050E060E070E004C0440F551F661F771FAF
:103BB0008A95D2F740955095609570958091FF0257
:103BC00090910003A0910103B09102038A019B012F
:103BD000082319232A233B23C901B8011F910F9100
:103BE0000C94861D0F931F9341E050E060E070E05D
:103BF00004C0440F551F661F771F8A95D2F7809126
:103C0000FF0290910003A0910103B09102038A0189
:103C10009B01082719272A273B27C901B8011F91B3
:103C20000F910C94861D0F931F930091FF0210912A
:103C300000032091010330910203602B712B822B32
:103C4000932B1F910F910C94861D0F931F9300913E
:103C5000FF021091000320910103309102036023C1
:103C60007123822393231F910F910C94861D0F9330
:103C70001F930091FF0210910003209101033091E6
:103C8000020360277127822793271F910F910C94BD
:103C9000861D0895292F220F920F990F890FA82FA3
:103CA000A695A695A695877051E001C0550F8A95F7
:103CB000EAF785E0A89FD001112420E030E070E011
:103CC000F901EA0FFB1FE853FD4F4081CB01022EA3
:103CD00002C0969587950A94E2F78170992781959D
:103CE00084278523842780832F5F3F4F253031052C
:103CF00039F70895292F220F920F990F890F682FF6
:103D0000669566956695982F977085E0689FB001D7
:103D1000112440E050E080E0FA01E60FF71FE8537D
:103D2000FD4F208130E0092E02C0369527950A9478
:103D3000E2F721703327042E01C0220F0A94EAF71C
:103D4000822B4F5F5F4F4530510531F70895CF9279
:103D5000DF92EF92FF920F931F93CF93DF938C012B
:103D6000C0900303D0900403E0900503F090060395
:103D70008091FF0290910003A0910103B091020392
:103D8000C82AD92AEA2AFB2ACFE1D0E0D701C60106
:103D90000C2E04C0B695A795979587950A94D2F7EF
:103DA00080FF06C0B8018C2F0E946A09019721F498
:103DB000219760F780E001C08C2FDF91CF911F9198
:103DC0000F91FF90EF90DF90CF900895CF93DF9306
:103DD000EC010E94A71EBE010E946A09DF91CF91EB
:103DE00008951F93CF93DF93EB0190918E02992357
:103DF00021F0CB010E94E61E13C0882349F0CB01BD
:103E00000E94A71E182F682FCE010E944A1E04C0D0
:103E1000CB010E947A1E182FBE01812F0E946A09D1
:103E2000DF91CF911F910895809107038595859526
:103E300085950895809107038770089598E0899F7C
:103E400090011124262B209307030C94AC1D209184
:103E500007038095822380930703982F977069F456
:103E600030E0482F082E000C550B2417350729F099
:103E70008595859585950C94CD1D089590910703A2
:103E8000977081E009F480E00895909113019923DF
:103E900021F09091A80397FD09C020910201309173
:103EA0000301F90132969FEF40E01FC0982F9695CD
:103EB000969596959F3150F5E0910201F09103019E
:103EC000E90FF11D877021E030E0A90102C0440F25
:103ED000551F8A95E2F7CA019181892B8183089544
:103EE0009F3F39F04F5F4E3141F051915813F8CF59
:103EF0000DC05111F7CF942FF5CF9F3F39F0F90145
:103F0000E90FF11D97FDFA95828308950895909128
:103F10001301992321F09091A80397FD09C02091E6
:103F2000020130910301F9013296205E3F4F1FC01C
:103F3000982F9695969596959F31F0F4E091020111
:103F4000F0910301E90FF11D877021E030E0A90134
:103F500002C0440F551F8A95E2F7CA0180959181EE
:103F60008923818308953196E217F30729F0908120
:103F70009813F9CF1082F7CF089581E090E0E09197
:103F80000201F0910301E80FF91F108201968032BF
:103F90009105A9F7089580912B03089590912B0323
:103FA000892B80932B030895809590912B0389236F
:103FB00080932B03089510922B03089590912A0368
:103FC000892B80932A030895809590912A03892351
:103FD00080932A03089510922A030895909129034B
:103FE000892B809329030895809590912903892333
:103FF000809329030895109229030895809308035C
:104000000895109208030895809102019091030190
:10401000FC0131969C01205E3F4F80E0919191110F
:104020008F5FE217F307D1F70895E0910201F09155
:10403000030180912B038083E0910201F091030141
:10404000908180912A03892B8083E0910201F09175
:104050000301908180912903892B8083809108033B
:10406000882361F0E0910201F09103019081892B96
:1040700080830E9404208111109208038091020124
:10408000909103010C94FF13CF92DF92EF92FF9275
:104090006C01EE24FF24C114D104E104F10421F0E9
:1040A000C701B60120E101C020E0C72ED82EE92EBD
:1040B000FF24C114D104E104F10419F0285FC70101
:1040C000B6016B017C0154E0F694E794D794C79451
:1040D0005A95D1F7C114D104E104F10419F02C5F11
:1040E000C701B6016B017C0142E0F694E794D794D6
:1040F000C7944A95D1F7C114D104E104F10419F031
:104100002E5FC701B601DC01CB01B695A795979547
:104110008795892B8A2B8B2B09F02F5F822FFF909D
:10412000EF90DF90CF9008956DEE7EEF80E090E00D
:104130000E94E82E60E082E090E00E94CA2E60E0DB
:1041400083E090E00E94CA2E60E084E090E00E944C
:10415000CA2E60E085E090E00E94CA2E40E050E068
:10416000BA0188E090E00C94DC2E80E090E00E94A0
:10417000C42E21E08D3E9E4F09F020E0822F08954D
:1041800082E090E00C94B62E83E090E00C94B62E82
:1041900084E090E00C94B62E682F84E090E00C94BC
:1041A000CA2E8091AE03843039F110922D0320E4A1
:1041B00088E190E00FB6F894A895809360000FBE58
:1041C0002093600080E00E944D0983B7817F846066
:1041D00083BF83B7816083BF7894889583B78E7FD0
:1041E00083BF0FB6F894A895809160008861809392
:1041F0006000109260000FBE08950895CF930E9452
:10420000CB050E9418060E94FD20C0E08C2F0E9462
:10421000FA06811104C0CF5FCE30C1F701C081E042
:10422000CF9108950E9486190E94F3130C944D09B2
:104230001F920F920FB60F9211248F939F93AF93FB
:10424000BF9380912D03811113C08091A40390919D
:10425000A503A091A603B091A7034196A11DB11D8E
:104260008093A4039093A503A093A603B093A70300
:10427000BF91AF919F918F910F900FBE0F901F90A4
:10428000189582E084BD93E095BD9AEF97BD809329
:104290006E0008952FB7F8948091A4039091A50320
:1042A000A091A603B091A7032FBF0895CF92DF92EC
:1042B000EF92FF920F931F932FB7F8944091A403AE
:1042C0005091A5036091A6037091A7032FBF6A01C7
:1042D0007B01EE24FF248C0120E030E0C016D106E3
:1042E000E206F30610F4415051099A01281B390BDC
:1042F000C9011F910F91FF90EF90DF90CF9008952B
:1043000078941F920F920FB60F9211248F939F9360
:10431000AF93BF938091A4039091A503A091A603AE
:10432000B091A7030196A11DB11D8093A4039093A2
:10433000A503A093A603B093A703BF91AF919F914C
:104340008F910F900FBE0F901F9018950E94592AC1
:10435000F8942FEF87EA91E6215080409040E1F7F2
:1043600000C0000087E090EBDC018093B7039093DE
:10437000B803A093B903B093BA039CE088E10FB6E9
:10438000F894A895809360000FBE90936000FFCFD3
:104390000E94B520811102C00E9494200E94C0207A
:1043A00080932C030E94C82090E09093A9038093EF
:1043B000A8030E94C420682F70E080E090E00C9475
:1043C0004D1D8091310380FF0BC06091070185E096
:1043D000689FB001112475956795759567952BC0F9
:1043E00081FF09C06091070185E0689FB001112439
:1043F0007595679520C082FF07C06091070185E031
:10440000689FB001112417C0909132039923D1F015
:1044100060910601961788F72091070185E0289F93
:1044200090011124929FA001939F500D112470E0E0
:10443000CA010E949C2E6038710540F46115710517
:1044400039F002C065E070E0862F08958FE7089587
:1044500081E008958091310380FF08C060910501DB
:1044600070E0759567957595679521C081FF06C0C9
:104470006091050170E07595679519C082FF04C0D1
:104480006091050170E010C0909132039923C1F052
:10449000609104019617A0F780910501899FC001E2
:1044A000112470E00E949C2E6038710528F461157B
:1044B000710521F0862F08958FE7089581E0089512
:1044C00061E070E0F4CF803F21F40E94E12181950A
:1044D00004C0813F29F40E94E121809335030895AF
:1044E000823F21F40E94E121819504C0833F29F499
:1044F0000E94E121809334030895893F19F40E94BA
:104500002A2205C08A3F31F40E942A228195809395
:10451000360308958B3F21F40E942A22819504C01E
:104520008C3F29F40E942A22809337030895843F08
:1045300021F480913303816017C0853F21F480917D
:104540003303826011C0863F21F48091330384607D
:104550000BC0873F21F480913303886005C0883FFA
:1045600031F48091330380618093330308958D3F4C
:1045700021F48091310381600BC08E3F21F4809142
:104580003103826005C08F3F29F48091310384603C
:10459000809331030895803F39F48091350387FF7C
:1045A0006CC01092350369C0813F29F480913503B6
:1045B0001816BCF362C090913403823F29F497FF30
:1045C0005CC01092340359C0833F19F41916CCF320
:1045D00054C0893F41F48091360318160CF04DC049
:1045E000109236034AC08A3F29F48091360387FF30
:1045F00044C0F6CF8B3F39F48091370387FF3DC02D
:10460000109237033AC08C3F29F480913703181673
:10461000BCF333C0843F21F4809133038E7F17C0F5
:10462000853F21F4809133038D7F11C0863F21F4B3
:10463000809133038B7F0BC0873F21F4809133033C
:10464000877F05C0883F31F4809133038F7E80934C
:10465000330313C08D3F21F4809131038E7F0BC053
:104660008E3F21F4809131038D7F05C08F3F29F467
:10467000809131038B7F80933103809134038111CA
:104680000EC08091350381110AC0809136038111DB
:1046900006C080913703811102C010923203089541
:1046A00083E393E00E940A140E944A2190932F030F
:1046B00080932E0308951F93CF93DF9380912E0351
:1046C00090912F030E945621AC01909132039923BF
:1046D00021F02091080130E006C0209130038AE0EB
:1046E000289F900111244217530708F485C0809138
:1046F0003403C0913503D0913603109137038111F3
:1047000007C0C11175C0D11173C0111171C074C03F
:104710009F3F19F09F5F90933203181624F40E9474
:10472000E121809334038091340387FF05C00E9408
:10473000E1218195809334031C1624F40E94E12129
:10474000809335038091350387FF05C00E94E121E6
:1047500081958093350360913403662331F1C091D4
:104760003503CC2311F1062E000C770B880B990B27
:104770000E948F2D23E333E343E35FE30E94F32D95
:104780000E94572D609334036C2FCC0F770B880B4E
:10479000990B0E948F2D23E333E343E35FE30E94F1
:1047A000F32D0E94572D609335031D1624F40E94AB
:1047B0002A22809336038091360387FF05C00E942A
:1047C0002A22819580933603111624F40E942A220E
:1047D000809337038091370387FF05C00E942A2208
:1047E000819580933703DF91CF911F910C945023D3
:1047F0009F3F09F08FCF97CFDF91CF911F91089501
:10480000E3E3F3E085E0DF011D928A95E9F710927A
:104810003203109231030895833081F128F48130FE
:1048200059F08230D1F00895853009F449C0B8F1CB
:10483000863009F456C0089580913003262F30E069
:10484000280F311D2F3F310524F4680F609330038A
:1048500008958FEF80933003089580910801262FEB
:1048600030E0280F311D2F3F310524F4680F60938D
:10487000080108958FEF8093080108958091070142
:10488000262F30E0280F311D2F3F310524F4680F0B
:104890006093070108958FEF809307010895809139
:1048A0000601262F30E0280F311D2F3F310524F45B
:1048B000680F6093060108958FEF809306010895B5
:1048C00080910501262F30E0280F311D2F3F310543
:1048D00024F4680F6093050108958FEF809305011C
:1048E000089580910401262F30E0280F311D2F3FBD
:1048F000310524F4680F6093040108958FEF8093CD
:1049000004010895833011F128F4813049F0823098
:1049100091F00895853081F120F18630C1F108953C
:1049200080913003681720F4861B8093300308952C
:1049300010923003089580910801681720F4861BB7
:10494000809308010895109208010895809107014D
:10495000681720F4861B80930701089510920701C1
:10496000089580910601681720F4861B8093060144
:10497000089510920601089580910501681720F4AA
:10498000861B80930501089510920501089580917A
:104990000401681720F4861B809304010895109287
:1049A000040108950F931F93873208F04DC08E3194
:1049B00008F093C0803109F47DC008F5873009F410
:1049C0006BC068F4863009F0A3C080912C03817F0E
:1049D0008E7F80932C0381E0809339039AC08B30C3
:1049E00009F48FC08E3009F093C080912C0382FBB4
:1049F000222720F991E0922790FB82F964C086314A
:104A000009F47FC088F4813109F082C00E948619C0
:104A10008091A80387FB222720F991E0922790FB41
:104A200087F98093A8036DC0893109F46AC08B317E
:104A300009F06EC080912C0381FB222720F991E0C0
:104A4000922790FB81F93FC0883309F45AC050F493
:104A5000893209F458C0853309F455C0873209F406
:104A600052C056C0833409F44EC028F48A3308F487
:104A70004FC0895333C0883409F04AC00E94861958
:104A80000FEF13ED20E3015010402040E1F700C08C
:104A900000000E94A62135C080912C03982F90958C
:104AA000917090FB80F980932C0391112AC0897F2B
:104AB000877F10C080912C0383FB222720F991E08F
:104AC000922790FB83F980932C039923D1F0809156
:104AD0002C03816080932C0314C08D5141E050E081
:104AE00060E070E08A019B0104C0000F111F221FCB
:104AF000331F8A95D2F7C901B8010E944D1D0E944B
:104B0000861981E006C061E070E080E090E0F5CFBA
:104B100080E01F910F91089580E0089580E008954E
:104B20008E518A3030F4E82FF0E0E454FE4F80815B
:104B3000089580E00895CF93C82F80913903813084
:104B400079F018F08230E9F185C0E0910201F0912E
:104B500003018081813169F0823209F07DC009C092
:104B6000E0910201F09103018081813111F08232E4
:104B700061F48C2F0E948C25811104C08C2F0E941F
:104B8000D2241DC081E090E01AC08C2F0E948E2597
:104B9000811114C0C43179F048F4CB3079F0C031C0
:104BA00009F05EC082E08093390308C0C93219F071
:104BB000C83321F055C01092390352C081E0817092
:104BC00051C0C93279F108F5C43161F1A0F4C730A0
:104BD00009F044C01092300384E180930801C0932F
:104BE00007018CE38093060188E08093050188E249
:104BF0008093040133C082EE8C0F863078F58C2FC1
:104C00000E9490258093380329C0CE34E9F020F427
:104C1000CB3421F56AE013C0C13579F0C235F1F427
:104C200061E00DC080913803882319F01092380399
:104C300015C081E08093390315C061E006C0809102
:104C400038030E940C240AC06AE0809138030E9455
:104C5000822404C01092390380E004C081E002C0C5
:104C600080E0ADCFCF91089580915A0308950F93BE
:104C70001F93CF93DF9300D01F92CDB7DEB78C0187
:104C80000E94A728823011F0843019F593E09983AF
:104C90001B830A839093E9008FEF9091E800815085
:104CA00095FD06C095ED9A95F1F700008111F5CFBD
:104CB0008091E80085FF0DC040E050E063E070E0C7
:104CC000CE0101960E94C4288091E8008E778093DF
:104CD000E8000F900F900F90DF91CF911F910F91EF
:104CE0000895CF93DF9300D01F92CDB7DEB7209108
:104CF000AE03243031F522E02983805891099B834B
:104D00008A8383E08093E9008FEF9091E8008150DF
:104D100095FD06C095ED9A95F1F700008111F5CF4C
:104D20008091E80085FF0DC040E050E063E070E056
:104D3000CE0101960E94C4288091E8008E7780936E
:104D4000E8000F900F900F90DF91CF910895CF93CF
:104D5000DF93EC010E94A728823011F08430F9F42F
:104D600082E08093E9009FEF8091E800915085FDFB
:104D700006C085ED8A95F1F700009111F5CF80917D
:104D8000E80085FF0CC040E050E065E070E0CE0137
:104D90000E94C4288091E8008E778093E800DF911C
:104DA000CF910895CF93DF93EC010E94A728823022
:104DB00019F0843009F047C0809113018823E1F095
:104DC0008091A80387FF18C084E08093E9008FEFEB
:104DD0009091E800815095FD06C095E19A95F1F714
:104DE00000008111F5CF8091E80085FF2CC040E0E4
:104DF00050E060E270E017C081E08093E9008FEF3F
:104E00009091E800815095FD06C095ED9A95F1F7D7
:104E100000008111F5CF8091E80085FF14C040E0CB
:104E200050E068E070E0CE010E94C4288091E80064
:104E30008E778093E80080E2FE01AAE3B3E0019060
:104E40000D928A95E1F7DF91CF9108958091AD039E
:104E5000811109C00E94592A0E94B62A8091E2005D
:104E600084608093E20008951092AD030895089540
:104E700008950C94122142E061EC81E00E94D32954
:104E800042E061EC82E00E94D32942E061EC83E0E1
:104E90000E94D32942E261EC84E00C94D3298091F2
:104EA000B003833009F455C030F4813071F08230A2
:104EB00009F48EC008958A3009F47AC08B3009F461
:104EC00060C0893009F09CC020C08091AF03813A56
:104ED00009F096C08091E800877F8093E800809178
:104EE000B3039091B403892B21F460E28AE393E049
:104EF00003C060E080E090E070E00E940F298091A4
:104F0000E8008B778093E80008958091AF038132A9
:104F100009F076C08091B3039091B403009719F023
:104F2000039709F06DC08091E800877F8093E800C7
:104F30008091E80082FD05C08091AE038111F8CF19
:104F40005FC08091F10080935A038091E8008B77D5
:104F500053C08091AF03813A09F052C08091B303EE
:104F60009091B403892B09F04BC08091E800877FB2
:104F70008093E8008091E80080FFFCCF80911301CE
:104F800036C08091AF038132D9F58091B3039091FF
:104F9000B403892BA9F58091E800877F8093E8000E
:104FA0000E94082A8091B103809313010C94861902
:104FB0008091AF03813221F58091E800877F809353
:104FC000E8000E94082A8091B20380935B03089551
:104FD0008091AF03813AA1F48091E800877F8093AC
:104FE000E8008091E80080FFFCCF80915B03809314
:104FF000F1008091E8008E778093E8000C94082AF5
:10500000089584B7877F84BF0FB6F894A8958091E0
:105010006000886180936000109260000FBE80E89D
:1050200080936100109261000E9442140E94592AEC
:105030000E94B62A8091E20084608093E200789416
:105040000E943C2D0E94441489E091E00E94EE13DE
:105050008091AE03853069F40E94D1208091AC0329
:105060008823B1F30E94FE20882391F30E94AE288A
:10507000EFCF0E944C140E94B713EACF292F332799
:1050800023303105C9F064F42130310581F022303C
:10509000310509F043C08DE690E021E538E042C0DB
:1050A00021323105F1F02232310541F137C082E180
:1050B00090E02EEB38E036C099278130910541F021
:1050C0008230910541F0892B49F5EDE4F8E005C007
:1050D000E5E3F8E002C0EDE1F8E0849190E09F01A3
:1050E00021C06430D8F4E62FF0E0EE0FFF1FEE523F
:1050F000FE4F2081318189E090E014C0643070F46B
:1051000070E0FB01EE0FFF1FE653FE4F208131815F
:10511000FB01EA53FE4F808190E004C080E090E004
:1051200020E030E0FA013183208308950895CF9381
:10513000C82F0E949628C0935C03CF910895809158
:10514000AE03843011F081E0089582E008958091EB
:105150005C03811102C00C949F28089580E189BDF1
:1051600082E189BD09B400FEFDCF8091D8008F7D1A
:105170008093D8008091E00082608093E00080916D
:10518000E00081FDFCCF0895CF92DF92EF92FF9275
:105190000F931F93CF93DF93EC018B016A010E9461
:1051A000272A811133C0C114D10439F0F60180815E
:1051B0009181081B190BC80FD91FE12CF12C011587
:1051C000110519F18091E80085FD16C08091E80075
:1051D0008E778093E800C114D10449F0F6018081F4
:1051E0009181E80EF91EF182E08285E00FC00E94F5
:1051F000272A882321F30AC089918093F100015066
:105200001109FFEFEF1AFF0ADACF80E0DF91CF91AB
:105210001F910F91FF90EF90DF90CF900895209114
:10522000B5033091B6032617370748F061157105AD
:1052300039F42091E8002E772093E80001C0B901ED
:1052400040E061157105A9F12091AE03222309F414
:1052500043C0253009F442C02091E80023FD40C03E
:105260002091E80022FD32C02091E80020FFE9CF24
:105270004091F3002091F20030E0342BFC01CF018B
:105280006115710559F02830310540F48191809302
:10529000F100615071092F5F3F4FF1CF41E028309D
:1052A000310509F040E02091E8002E772093E800D6
:1052B000C8CF4111C9CF0AC08091AE03882361F0E5
:1052C000853061F08091E80083FD0AC08091E8009C
:1052D00082FFF2CF80E0089582E0089583E0089590
:1052E00081E008952091B5033091B6032617370762
:1052F00048F06115710539F42091E8002E7720936C
:10530000E80001C0B901FC0120E06115710591F1CF
:105310008091AE03882309F440C0853009F43FC072
:105320008091E80083FD3DC08091E80082FD2FC0A0
:105330008091E80080FFE9CF2091F3008091F20096
:1053400090E0922B6115710559F08830910540F479
:1053500024912093F1003196615071090196F2CFAA
:1053600021E0089709F020E08091E8008E77809393
:10537000E800CBCF2111CCCF0AC08091AE038823A7
:1053800061F0853061F08091E80083FD0AC0809172
:10539000E80082FFF2CF80E0089582E0089583E084
:1053A000089581E00895982F973058F59093E9007B
:1053B000981739F07091EC002091ED005091F000B9
:1053C00003C0242F762F50E021FF19C03091EB004D
:1053D0003E7F3093EB003091ED003D7F3093ED0048
:1053E0003091EB0031603093EB007093EC00209330
:1053F000ED005093F0002091EE0027FF07C09F5F63
:10540000D3CF8F708093E90081E0089580E0089504
:105410008091AF0387FF11C08091E80082FD05C035
:105420008091AE038111F8CF11C08091E8008B7795
:105430000BC08091AE03882349F08091E80080FF83
:10544000F8CF8091E8008E778093E800089520914E
:10545000E4003091E50095E64091EC00842F8170E6
:1054600040FF22C08091E80080FD1CC08091AE0307
:10547000882391F0853091F08091EB0085FD10C07C
:105480004091E4005091E5004217530729F39A0137
:10549000915011F784E0089582E0089583E0089523
:1054A00081E0089580E008954091E80042FFDECF5A
:1054B00008950E94C72A0E94CF2AE0EEF0E0808182
:1054C00081608083E8EDF0E080818F77808319BC74
:1054D000A7EDB0E08C918E7F8C9380818F7E80834E
:1054E0001092AD0308950F931F93CF93DF930E9403
:1054F000C72A0E94CF2AC8EDD0E088818F778883A1
:1055000088818068888388818F7D888319BC109208
:10551000AE031092AA031092AC031092AB0300EEFC
:1055200010E0F80180818B7F80838881816088838F
:1055300042E060E080E00E94D329E1EEF0E080816B
:105540008E7F8083E2EEF0E08081816080838081C5
:1055500088608083F80180818E7F8083888180616C
:105560008883DF91CF911F910F910895E8EDF0E0CE
:1055700080818F7E8083E7EDF0E080818160808391
:1055800084E082BF81E08093AD030C94732AE8ED40
:10559000F0E080818E7F80831092E2000895109267
:1055A000DA001092E10008951F920F920FB60F9249
:1055B00011242F933F934F935F936F937F938F9318
:1055C0009F93AF93BF93EF93FF938091E10082FF8E
:1055D0000BC08091E20082FF07C08091E1008B7FC9
:1055E0008093E1000E943B2D8091DA0080FF1FC074
:1055F0008091D80080FF1BC08091DA008E7F80935D
:10560000DA008091D90080FF0DC080E189BD82E180
:1056100089BD09B400FEFDCF81E08093AE030E94F6
:10562000262705C019BC1092AE030E943427809132
:10563000E10080FF19C08091E20080FF15C08091D9
:10564000E2008E7F8093E2008091E200806180938F
:10565000E2008091D80080628093D80019BC85E078
:105660008093AE030E9438278091E10084FF30C010
:105670008091E20084FF2CC080E189BD82E189BD78
:1056800009B400FEFDCF8091D8008F7D8093D800B3
:105690008091E1008F7E8093E1008091E2008F7E17
:1056A0008093E2008091E20081608093E20080912B
:1056B000AA03882311F084E007C08091E30087FDEE
:1056C00002C081E001C083E08093AE030E943927CD
:1056D0008091E10083FF29C08091E20083FF25C013
:1056E0008091E100877F8093E10082E08093AE03A8
:1056F0001092AA038091E1008E7F8093E100809157
:10570000E2008E7F8093E2008091E20080618093CE
:10571000E20042E060E080E00E94D3298091F00046
:1057200088608093F0000E943727FF91EF91BF912E
:10573000AF919F918F917F916F915F914F913F9129
:105740002F910F900FBE0F901F9018951F920F92E0
:105750000FB60F9211242F933F934F935F936F9344
:105760007F938F939F93AF93BF93CF93DF93EF93E9
:10577000FF93C091E900CF708091EC00D82FD170D9
:1057800080FDD0E81092E9008091F000877F80933F
:10579000F00078940E94EA2B1092E9008091F000CA
:1057A00088608093F000CD2BCF70C093E900FF910B
:1057B000EF91DF91CF91BF91AF919F918F917F91A9
:1057C0006F915F914F913F912F910F900FBE0F906E
:1057D0001F9018951F93CF93DF93CDB7DEB7AA978D
:1057E0000FB6F894DEBF0FBECDBFEFEAF3E088E05E
:1057F0008E0F9091F10091938E13FBCF0E944F2753
:105800008091E80083FF1FC18091AF039091B003A6
:10581000492F50E04A30510508F015C1FA01EE5504
:10582000FF4F0C94B02E803881F0823809F00BC104
:105830008091B3038F708093E9008091EB0085FB2A
:10584000882780F91092E90006C08091AB039091FF
:10585000AC03911182609091E800977F9093E800EB
:105860008093F1001092F100C8C0282F2D7F09F01D
:10587000EAC0882319F0823061F0E5C08091B1035D
:10588000813009F0E0C0933009F080E08093AC03F0
:105890002BC08091B103811127C08091B3038F7019
:1058A00009F4D1C08093E9002091EB0020FF1CC0D7
:1058B000933021F48091EB00806214C09091EB0052
:1058C00090619093EB0021E030E0A90102C0440F09
:1058D000551F8A95E2F74093EA001092EA00809102
:1058E000EB0088608093EB001092E9008091E80063
:1058F000877F86C08111A7C01091B1031F77809167
:10590000E3008078812B8093E3008091E800877F1B
:105910008093E8000E94082A8091E80080FFFCCF75
:105920008091E30080688093E300111102C082E05F
:1059300001C083E08093AE0386C08058823008F0B7
:1059400082C08091B1039091B2038C3D53E09507E2
:1059500079F583E08A838AE289834FB7F894DE0180
:10596000139620E03EE051E2E32FF0E05093570021
:10597000E49120FF03C0E295EF703F5FEF708E2F40
:1059800090E0EA3010F0C79601C0C0968D939D93C9
:105990002F5F243149F74FBF8091E800877F8093C4
:1059A000E8006AE270E0CE0101960E940F2914C05F
:1059B000AE014F5F5F4F6091B3030E943E28BC0170
:1059C000892B09F440C09091E800977F9093E800FC
:1059D00089819A810E9472298091E8008B77809357
:1059E000E80031C0803879F58091E800877F8093A6
:1059F000E8008091AA038093F1008091E8008E77FF
:105A00008093E8000E94082A1EC081111CC090915A
:105A1000B1039230C0F48091E800877F8093E80062
:105A20009093AA030E94082A8091AA03811106C0BC
:105A30008091E30087FD02C081E001C084E0809393
:105A4000AE030E943B278091E80083FF0AC080914B
:105A5000E800877F8093E8008091EB00806280936C
:105A6000EB00AA960FB6F894DEBF0FBECDBFDF9154
:105A7000CF911F9108950895CF938091AE0388230D
:105A8000A1F0C091E900CF709091EC00892F817056
:105A900090FD80E8C82B1092E9008091E80083FD1A
:105AA0000E94EA2BCF70C093E900CF9108950E9425
:105AB0005E2D6894B1110C94ED2D08950E94D22DA5
:105AC00088F09F5798F0B92F9927B751B0F0E1F0BF
:105AD000660F771F881F991F1AF0BA95C9F714C06F
